{
  "_format": "hh-sol-artifact-1",
  "contractName": "Escrow",
  "sourceName": "contracts/Escrow.sol",
  "abi": [
    {
      "inputs": [
        {
          "internalType": "address",
          "name": "_arbiter",
          "type": "address"
        },
        {
          "internalType": "address",
          "name": "_beneficiary",
          "type": "address"
        }
      ],
      "stateMutability": "payable",
      "type": "constructor"
    },
    {
      "anonymous": false,
      "inputs": [
        {
          "indexed": false,
          "internalType": "uint256",
          "name": "",
          "type": "uint256"
        }
      ],
      "name": "Approved",
      "type": "event"
    },
    {
      "anonymous": false,
      "inputs": [
        {
          "indexed": false,
          "internalType": "uint256",
          "name": "",
          "type": "uint256"
        }
      ],
      "name": "Rejected",
      "type": "event"
    },
    {
      "inputs": [],
      "name": "approve",
      "outputs": [],
      "stateMutability": "nonpayable",
      "type": "function"
    },
    {
      "inputs": [],
      "name": "arbiter",
      "outputs": [
        {
          "internalType": "address",
          "name": "",
          "type": "address"
        }
      ],
      "stateMutability": "view",
      "type": "function"
    },
    {
      "inputs": [],
      "name": "beneficiary",
      "outputs": [
        {
          "internalType": "address",
          "name": "",
          "type": "address"
        }
      ],
      "stateMutability": "view",
      "type": "function"
    },
    {
      "inputs": [],
      "name": "depositor",
      "outputs": [
        {
          "internalType": "address",
          "name": "",
          "type": "address"
        }
      ],
      "stateMutability": "view",
      "type": "function"
    },
    {
      "inputs": [],
      "name": "isApproved",
      "outputs": [
        {
          "internalType": "bool",
          "name": "",
          "type": "bool"
        }
      ],
      "stateMutability": "view",
      "type": "function"
    },
    {
      "inputs": [],
      "name": "isRejected",
      "outputs": [
        {
          "internalType": "bool",
          "name": "",
          "type": "bool"
        }
      ],
      "stateMutability": "view",
      "type": "function"
    },
    {
      "inputs": [],
      "name": "reject",
      "outputs": [],
      "stateMutability": "nonpayable",
      "type": "function"
    },
    {
      "inputs": [],
      "name": "status",
      "outputs": [
        {
          "internalType": "string",
          "name": "",
          "type": "string"
        }
      ],
      "stateMutability": "view",
      "type": "function"
    }
  ],
  "bytecode": "0x60806040526040518060400160405280600481526020017f6e6f6e6500000000000000000000000000000000000000000000000000000000815250600390816200004a9190620003b4565b506040516200118638038062001186833981810160405281019062000070919062000505565b816000806101000a81548173ffffffffffffffffffffffffffffffffffffffff021916908373ffffffffffffffffffffffffffffffffffffffff16021790555080600160006101000a81548173ffffffffffffffffffffffffffffffffffffffff021916908373ffffffffffffffffffffffffffffffffffffffff16021790555033600260006101000a81548173ffffffffffffffffffffffffffffffffffffffff021916908373ffffffffffffffffffffffffffffffffffffffff16021790555050506200054c565b600081519050919050565b7f4e487b7100000000000000000000000000000000000000000000000000000000600052604160045260246000fd5b7f4e487b7100000000000000000000000000000000000000000000000000000000600052602260045260246000fd5b60006002820490506001821680620001bc57607f821691505b602082108103620001d257620001d162000174565b5b50919050565b60008190508160005260206000209050919050565b60006020601f8301049050919050565b600082821b905092915050565b6000600883026200023c7fffffffffffffffffffffffffffffffffffffffffffffffffffffffffffffffff82620001fd565b620002488683620001fd565b95508019841693508086168417925050509392505050565b6000819050919050565b6000819050919050565b6000620002956200028f620002898462000260565b6200026a565b62000260565b9050919050565b6000819050919050565b620002b18362000274565b620002c9620002c0826200029c565b8484546200020a565b825550505050565b600090565b620002e0620002d1565b620002ed818484620002a6565b505050565b5b81811015620003155762000309600082620002d6565b600181019050620002f3565b5050565b601f82111562000364576200032e81620001d8565b6200033984620001ed565b8101602085101562000349578190505b620003616200035885620001ed565b830182620002f2565b50505b505050565b600082821c905092915050565b6000620003896000198460080262000369565b1980831691505092915050565b6000620003a4838362000376565b9150826002028217905092915050565b620003bf826200013a565b67ffffffffffffffff811115620003db57620003da62000145565b5b620003e78254620001a3565b620003f482828562000319565b600060209050601f8311600181146200042c576000841562000417578287015190505b62000423858262000396565b86555062000493565b601f1984166200043c86620001d8565b60005b8281101562000466578489015182556001820191506020850194506020810190506200043f565b8683101562000486578489015162000482601f89168262000376565b8355505b6001600288020188555050505b505050505050565b600080fd5b600073ffffffffffffffffffffffffffffffffffffffff82169050919050565b6000620004cd82620004a0565b9050919050565b620004df81620004c0565b8114620004eb57600080fd5b50565b600081519050620004ff81620004d4565b92915050565b600080604083850312156200051f576200051e6200049b565b5b60006200052f85828601620004ee565b92505060206200054285828601620004ee565b9150509250929050565b610c2a806200055c6000396000f3fe608060405234801561001057600080fd5b50600436106100885760003560e01c80634dc415de1161005b5780634dc415de146100f1578063c2c706b0146100fb578063c7c4ff4614610119578063fe25e00a1461013757610088565b806312424e3f1461008d578063200d2ed21461009757806328f371aa146100b557806338af3eed146100d3575b600080fd5b610095610155565b005b61009f61031b565b6040516100ac9190610695565b60405180910390f35b6100bd6103a9565b6040516100ca91906106d2565b60405180910390f35b6100db6103bc565b6040516100e8919061072e565b60405180910390f35b6100f96103e2565b005b6101036105a8565b60405161011091906106d2565b60405180910390f35b6101216105bb565b60405161012e919061072e565b60405180910390f35b61013f6105e1565b60405161014c919061072e565b60405180910390f35b60008054906101000a900473ffffffffffffffffffffffffffffffffffffffff1673ffffffffffffffffffffffffffffffffffffffff163373ffffffffffffffffffffffffffffffffffffffff16146101ad57600080fd5b60004790506000600160009054906101000a900473ffffffffffffffffffffffffffffffffffffffff1673ffffffffffffffffffffffffffffffffffffffff16826040516101fa9061077a565b60006040518083038185875af1925050503d8060008114610237576040519150601f19603f3d011682016040523d82523d6000602084013e61023c565b606091505b5050905080610280576040517f08c379a000000000000000000000000000000000000000000000000000000000815260040161027790610801565b60405180910390fd5b7f3ad93af63cb7967b23e4fb500b7d7d28b07516325dcf341f88bebf959d82c1cb826040516102af919061083a565b60405180910390a16001600260146101000a81548160ff0219169083151502179055506040518060400160405280600881526020017f617070726f766564000000000000000000000000000000000000000000000000815250600390816103169190610a90565b505050565b60038054610328906108b3565b80601f0160208091040260200160405190810160405280929190818152602001828054610354906108b3565b80156103a15780601f10610376576101008083540402835291602001916103a1565b820191906000526020600020905b81548152906001019060200180831161038457829003601f168201915b505050505081565b600260149054906101000a900460ff1681565b600160009054906101000a900473ffffffffffffffffffffffffffffffffffffffff1681565b60008054906101000a900473ffffffffffffffffffffffffffffffffffffffff1673ffffffffffffffffffffffffffffffffffffffff163373ffffffffffffffffffffffffffffffffffffffff161461043a57600080fd5b60004790506000600260009054906101000a900473ffffffffffffffffffffffffffffffffffffffff1673ffffffffffffffffffffffffffffffffffffffff16826040516104879061077a565b60006040518083038185875af1925050503d80600081146104c4576040519150601f19603f3d011682016040523d82523d6000602084013e6104c9565b606091505b505090508061050d576040517f08c379a000000000000000000000000000000000000000000000000000000000815260040161050490610bd4565b60405180910390fd5b7f94064f919a02d0565c6790e0615fb4ba6cf1be1dd679f0161be914613a1b9bb58260405161053c919061083a565b60405180910390a16001600260156101000a81548160ff0219169083151502179055506040518060400160405280600881526020017f72656a6563746564000000000000000000000000000000000000000000000000815250600390816105a39190610a90565b505050565b600260159054906101000a900460ff1681565b600260009054906101000a900473ffffffffffffffffffffffffffffffffffffffff1681565b60008054906101000a900473ffffffffffffffffffffffffffffffffffffffff1681565b600081519050919050565b600082825260208201905092915050565b60005b8381101561063f578082015181840152602081019050610624565b60008484015250505050565b6000601f19601f8301169050919050565b600061066782610605565b6106718185610610565b9350610681818560208601610621565b61068a8161064b565b840191505092915050565b600060208201905081810360008301526106af818461065c565b905092915050565b60008115159050919050565b6106cc816106b7565b82525050565b60006020820190506106e760008301846106c3565b92915050565b600073ffffffffffffffffffffffffffffffffffffffff82169050919050565b6000610718826106ed565b9050919050565b6107288161070d565b82525050565b6000602082019050610743600083018461071f565b92915050565b600081905092915050565b50565b6000610764600083610749565b915061076f82610754565b600082019050919050565b600061078582610757565b9150819050919050565b7f4661696c656420746f2073656e6420457468657220746f2062656e656669636960008201527f6172790000000000000000000000000000000000000000000000000000000000602082015250565b60006107eb602383610610565b91506107f68261078f565b604082019050919050565b6000602082019050818103600083015261081a816107de565b9050919050565b6000819050919050565b61083481610821565b82525050565b600060208201905061084f600083018461082b565b92915050565b7f4e487b7100000000000000000000000000000000000000000000000000000000600052604160045260246000fd5b7f4e487b7100000000000000000000000000000000000000000000000000000000600052602260045260246000fd5b600060028204905060018216806108cb57607f821691505b6020821081036108de576108dd610884565b5b50919050565b60008190508160005260206000209050919050565b60006020601f8301049050919050565b600082821b905092915050565b6000600883026109467fffffffffffffffffffffffffffffffffffffffffffffffffffffffffffffffff82610909565b6109508683610909565b95508019841693508086168417925050509392505050565b6000819050919050565b600061098d61098861098384610821565b610968565b610821565b9050919050565b6000819050919050565b6109a783610972565b6109bb6109b382610994565b848454610916565b825550505050565b600090565b6109d06109c3565b6109db81848461099e565b505050565b5b818110156109ff576109f46000826109c8565b6001810190506109e1565b5050565b601f821115610a4457610a15816108e4565b610a1e846108f9565b81016020851015610a2d578190505b610a41610a39856108f9565b8301826109e0565b50505b505050565b600082821c905092915050565b6000610a6760001984600802610a49565b1980831691505092915050565b6000610a808383610a56565b9150826002028217905092915050565b610a9982610605565b67ffffffffffffffff811115610ab257610ab1610855565b5b610abc82546108b3565b610ac7828285610a03565b600060209050601f831160018114610afa5760008415610ae8578287015190505b610af28582610a74565b865550610b5a565b601f198416610b08866108e4565b60005b82811015610b3057848901518255600182019150602085019450602081019050610b0b565b86831015610b4d5784890151610b49601f891682610a56565b8355505b6001600288020188555050505b505050505050565b7f4661696c656420746f2073656e6420457468657220746f206465706f7369746f60008201527f7200000000000000000000000000000000000000000000000000000000000000602082015250565b6000610bbe602183610610565b9150610bc982610b62565b604082019050919050565b60006020820190508181036000830152610bed81610bb1565b905091905056fea2646970667358221220f554c158259e5b4fdc55523c9eed352f6756302bd7a6ed0777f23200c924167b64736f6c63430008110033",
  "linkReferences": {},
  "deployedLinkReferences": {}
}