{
  "_format": "hh-sol-artifact-1",
  "contractName": "Escrow",
  "sourceName": "contracts/Escrow.sol",
  "abi": [
    {
      "inputs": [
        {
          "internalType": "address",
          "name": "_arbiter",
          "type": "address"
        },
        {
          "internalType": "address",
          "name": "_beneficiary",
          "type": "address"
        }
      ],
      "stateMutability": "payable",
      "type": "constructor"
    },
    {
      "anonymous": false,
      "inputs": [
        {
          "indexed": false,
          "internalType": "uint256",
          "name": "",
          "type": "uint256"
        }
      ],
      "name": "Approved",
      "type": "event"
    },
    {
      "anonymous": false,
      "inputs": [
        {
          "indexed": false,
          "internalType": "uint256",
          "name": "",
          "type": "uint256"
        }
      ],
      "name": "Rejected",
      "type": "event"
    },
    {
      "inputs": [],
      "name": "approve",
      "outputs": [],
      "stateMutability": "nonpayable",
      "type": "function"
    },
    {
      "inputs": [],
      "name": "arbiter",
      "outputs": [
        {
          "internalType": "address",
          "name": "",
          "type": "address"
        }
      ],
      "stateMutability": "view",
      "type": "function"
    },
    {
      "inputs": [],
      "name": "beneficiary",
      "outputs": [
        {
          "internalType": "address",
          "name": "",
          "type": "address"
        }
      ],
      "stateMutability": "view",
      "type": "function"
    },
    {
      "inputs": [],
      "name": "depositor",
      "outputs": [
        {
          "internalType": "address",
          "name": "",
          "type": "address"
        }
      ],
      "stateMutability": "view",
      "type": "function"
    },
    {
      "inputs": [],
      "name": "isApproved",
      "outputs": [
        {
          "internalType": "bool",
          "name": "",
          "type": "bool"
        }
      ],
      "stateMutability": "view",
      "type": "function"
    },
    {
      "inputs": [],
      "name": "isRejected",
      "outputs": [
        {
          "internalType": "bool",
          "name": "",
          "type": "bool"
        }
      ],
      "stateMutability": "view",
      "type": "function"
    },
    {
      "inputs": [],
      "name": "reject",
      "outputs": [],
      "stateMutability": "nonpayable",
      "type": "function"
    }
  ],
  "bytecode": "0x60806040526040516108db3803806108db83398181016040528101906100259190610151565b816000806101000a81548173ffffffffffffffffffffffffffffffffffffffff021916908373ffffffffffffffffffffffffffffffffffffffff16021790555080600160006101000a81548173ffffffffffffffffffffffffffffffffffffffff021916908373ffffffffffffffffffffffffffffffffffffffff16021790555033600260006101000a81548173ffffffffffffffffffffffffffffffffffffffff021916908373ffffffffffffffffffffffffffffffffffffffff1602179055505050610191565b600080fd5b600073ffffffffffffffffffffffffffffffffffffffff82169050919050565b600061011e826100f3565b9050919050565b61012e81610113565b811461013957600080fd5b50565b60008151905061014b81610125565b92915050565b60008060408385031215610168576101676100ee565b5b60006101768582860161013c565b92505060206101878582860161013c565b9150509250929050565b61073b806101a06000396000f3fe608060405234801561001057600080fd5b506004361061007d5760003560e01c80634dc415de1161005b5780634dc415de146100c8578063c2c706b0146100d2578063c7c4ff46146100f0578063fe25e00a1461010e5761007d565b806312424e3f1461008257806328f371aa1461008c57806338af3eed146100aa575b600080fd5b61008a61012c565b005b6100946102ad565b6040516100a191906104df565b60405180910390f35b6100b26102c0565b6040516100bf919061053b565b60405180910390f35b6100d06102e6565b005b6100da610467565b6040516100e791906104df565b60405180910390f35b6100f861047a565b604051610105919061053b565b60405180910390f35b6101166104a0565b604051610123919061053b565b60405180910390f35b60008054906101000a900473ffffffffffffffffffffffffffffffffffffffff1673ffffffffffffffffffffffffffffffffffffffff163373ffffffffffffffffffffffffffffffffffffffff161461018457600080fd5b60004790506000600160009054906101000a900473ffffffffffffffffffffffffffffffffffffffff1673ffffffffffffffffffffffffffffffffffffffff16826040516101d190610587565b60006040518083038185875af1925050503d806000811461020e576040519150601f19603f3d011682016040523d82523d6000602084013e610213565b606091505b5050905080610257576040517f08c379a000000000000000000000000000000000000000000000000000000000815260040161024e9061061f565b60405180910390fd5b7f3ad93af63cb7967b23e4fb500b7d7d28b07516325dcf341f88bebf959d82c1cb826040516102869190610658565b60405180910390a16001600260146101000a81548160ff0219169083151502179055505050565b600260149054906101000a900460ff1681565b600160009054906101000a900473ffffffffffffffffffffffffffffffffffffffff1681565b60008054906101000a900473ffffffffffffffffffffffffffffffffffffffff1673ffffffffffffffffffffffffffffffffffffffff163373ffffffffffffffffffffffffffffffffffffffff161461033e57600080fd5b60004790506000600260009054906101000a900473ffffffffffffffffffffffffffffffffffffffff1673ffffffffffffffffffffffffffffffffffffffff168260405161038b90610587565b60006040518083038185875af1925050503d80600081146103c8576040519150601f19603f3d011682016040523d82523d6000602084013e6103cd565b606091505b5050905080610411576040517f08c379a0000000000000000000000000000000000000000000000000000000008152600401610408906106e5565b60405180910390fd5b7f94064f919a02d0565c6790e0615fb4ba6cf1be1dd679f0161be914613a1b9bb5826040516104409190610658565b60405180910390a16001600260156101000a81548160ff0219169083151502179055505050565b600260159054906101000a900460ff1681565b600260009054906101000a900473ffffffffffffffffffffffffffffffffffffffff1681565b60008054906101000a900473ffffffffffffffffffffffffffffffffffffffff1681565b60008115159050919050565b6104d9816104c4565b82525050565b60006020820190506104f460008301846104d0565b92915050565b600073ffffffffffffffffffffffffffffffffffffffff82169050919050565b6000610525826104fa565b9050919050565b6105358161051a565b82525050565b6000602082019050610550600083018461052c565b92915050565b600081905092915050565b50565b6000610571600083610556565b915061057c82610561565b600082019050919050565b600061059282610564565b9150819050919050565b600082825260208201905092915050565b7f4661696c656420746f2073656e6420457468657220746f2062656e656669636960008201527f6172790000000000000000000000000000000000000000000000000000000000602082015250565b600061060960238361059c565b9150610614826105ad565b604082019050919050565b60006020820190508181036000830152610638816105fc565b9050919050565b6000819050919050565b6106528161063f565b82525050565b600060208201905061066d6000830184610649565b92915050565b7f4661696c656420746f2073656e6420457468657220746f206465706f7369746f60008201527f7200000000000000000000000000000000000000000000000000000000000000602082015250565b60006106cf60218361059c565b91506106da82610673565b604082019050919050565b600060208201905081810360008301526106fe816106c2565b905091905056fea26469706673582212201ececb72a9a985701efda03358b301f7a885feb2eaa7a24b392d24848cdb64ab64736f6c63430008110033",
  "linkReferences": {},
  "deployedLinkReferences": {}
}