{
  "_format": "hh-sol-artifact-1",
  "contractName": "Escrow",
  "sourceName": "contracts/Escrow.sol",
  "abi": [
    {
      "inputs": [
        {
          "internalType": "address",
          "name": "_arbiter",
          "type": "address"
        },
        {
          "internalType": "address",
          "name": "_beneficiary",
          "type": "address"
        }
      ],
      "stateMutability": "payable",
      "type": "constructor"
    },
    {
      "anonymous": false,
      "inputs": [
        {
          "indexed": false,
          "internalType": "uint256",
          "name": "",
          "type": "uint256"
        }
      ],
      "name": "Approved",
      "type": "event"
    },
    {
      "anonymous": false,
      "inputs": [
        {
          "indexed": false,
          "internalType": "uint256",
          "name": "",
          "type": "uint256"
        }
      ],
      "name": "Rejected",
      "type": "event"
    },
    {
      "inputs": [],
      "name": "approve",
      "outputs": [],
      "stateMutability": "nonpayable",
      "type": "function"
    },
    {
      "inputs": [],
      "name": "arbiter",
      "outputs": [
        {
          "internalType": "address",
          "name": "",
          "type": "address"
        }
      ],
      "stateMutability": "view",
      "type": "function"
    },
    {
      "inputs": [],
      "name": "beneficiary",
      "outputs": [
        {
          "internalType": "address",
          "name": "",
          "type": "address"
        }
      ],
      "stateMutability": "view",
      "type": "function"
    },
    {
      "inputs": [],
      "name": "depositor",
      "outputs": [
        {
          "internalType": "address",
          "name": "",
          "type": "address"
        }
      ],
      "stateMutability": "view",
      "type": "function"
    },
    {
      "inputs": [],
      "name": "reject",
      "outputs": [],
      "stateMutability": "nonpayable",
      "type": "function"
    },
    {
      "inputs": [],
      "name": "status",
      "outputs": [
        {
          "internalType": "string",
          "name": "",
          "type": "string"
        }
      ],
      "stateMutability": "view",
      "type": "function"
    }
  ],
  "bytecode": "0x60806040526040518060400160405280600481526020017f6e6f6e6500000000000000000000000000000000000000000000000000000000815250600390816200004a9190620003b4565b506040516200109238038062001092833981810160405281019062000070919062000505565b816000806101000a81548173ffffffffffffffffffffffffffffffffffffffff021916908373ffffffffffffffffffffffffffffffffffffffff16021790555080600160006101000a81548173ffffffffffffffffffffffffffffffffffffffff021916908373ffffffffffffffffffffffffffffffffffffffff16021790555033600260006101000a81548173ffffffffffffffffffffffffffffffffffffffff021916908373ffffffffffffffffffffffffffffffffffffffff16021790555050506200054c565b600081519050919050565b7f4e487b7100000000000000000000000000000000000000000000000000000000600052604160045260246000fd5b7f4e487b7100000000000000000000000000000000000000000000000000000000600052602260045260246000fd5b60006002820490506001821680620001bc57607f821691505b602082108103620001d257620001d162000174565b5b50919050565b60008190508160005260206000209050919050565b60006020601f8301049050919050565b600082821b905092915050565b6000600883026200023c7fffffffffffffffffffffffffffffffffffffffffffffffffffffffffffffffff82620001fd565b620002488683620001fd565b95508019841693508086168417925050509392505050565b6000819050919050565b6000819050919050565b6000620002956200028f620002898462000260565b6200026a565b62000260565b9050919050565b6000819050919050565b620002b18362000274565b620002c9620002c0826200029c565b8484546200020a565b825550505050565b600090565b620002e0620002d1565b620002ed818484620002a6565b505050565b5b81811015620003155762000309600082620002d6565b600181019050620002f3565b5050565b601f82111562000364576200032e81620001d8565b6200033984620001ed565b8101602085101562000349578190505b620003616200035885620001ed565b830182620002f2565b50505b505050565b600082821c905092915050565b6000620003896000198460080262000369565b1980831691505092915050565b6000620003a4838362000376565b9150826002028217905092915050565b620003bf826200013a565b67ffffffffffffffff811115620003db57620003da62000145565b5b620003e78254620001a3565b620003f482828562000319565b600060209050601f8311600181146200042c576000841562000417578287015190505b62000423858262000396565b86555062000493565b601f1984166200043c86620001d8565b60005b8281101562000466578489015182556001820191506020850194506020810190506200043f565b8683101562000486578489015162000482601f89168262000376565b8355505b6001600288020188555050505b505050505050565b600080fd5b600073ffffffffffffffffffffffffffffffffffffffff82169050919050565b6000620004cd82620004a0565b9050919050565b620004df81620004c0565b8114620004eb57600080fd5b50565b600081519050620004ff81620004d4565b92915050565b600080604083850312156200051f576200051e6200049b565b5b60006200052f85828601620004ee565b92505060206200054285828601620004ee565b9150509250929050565b610b36806200055c6000396000f3fe608060405234801561001057600080fd5b50600436106100625760003560e01c806312424e3f14610067578063200d2ed21461007157806338af3eed1461008f5780634dc415de146100ad578063c7c4ff46146100b7578063fe25e00a146100d5575b600080fd5b61006f6100f3565b005b61007961029e565b60405161008691906105d7565b60405180910390f35b61009761032c565b6040516100a4919061063a565b60405180910390f35b6100b5610352565b005b6100bf6104fd565b6040516100cc919061063a565b60405180910390f35b6100dd610523565b6040516100ea919061063a565b60405180910390f35b60008054906101000a900473ffffffffffffffffffffffffffffffffffffffff1673ffffffffffffffffffffffffffffffffffffffff163373ffffffffffffffffffffffffffffffffffffffff161461014b57600080fd5b60004790506000600160009054906101000a900473ffffffffffffffffffffffffffffffffffffffff1673ffffffffffffffffffffffffffffffffffffffff168260405161019890610686565b60006040518083038185875af1925050503d80600081146101d5576040519150601f19603f3d011682016040523d82523d6000602084013e6101da565b606091505b505090508061021e576040517f08c379a00000000000000000000000000000000000000000000000000000000081526004016102159061070d565b60405180910390fd5b7f3ad93af63cb7967b23e4fb500b7d7d28b07516325dcf341f88bebf959d82c1cb8260405161024d9190610746565b60405180910390a16040518060400160405280600881526020017f617070726f76656400000000000000000000000000000000000000000000000081525060039081610299919061099c565b505050565b600380546102ab906107bf565b80601f01602080910402602001604051908101604052809291908181526020018280546102d7906107bf565b80156103245780601f106102f957610100808354040283529160200191610324565b820191906000526020600020905b81548152906001019060200180831161030757829003601f168201915b505050505081565b600160009054906101000a900473ffffffffffffffffffffffffffffffffffffffff1681565b60008054906101000a900473ffffffffffffffffffffffffffffffffffffffff1673ffffffffffffffffffffffffffffffffffffffff163373ffffffffffffffffffffffffffffffffffffffff16146103aa57600080fd5b60004790506000600260009054906101000a900473ffffffffffffffffffffffffffffffffffffffff1673ffffffffffffffffffffffffffffffffffffffff16826040516103f790610686565b60006040518083038185875af1925050503d8060008114610434576040519150601f19603f3d011682016040523d82523d6000602084013e610439565b606091505b505090508061047d576040517f08c379a000000000000000000000000000000000000000000000000000000000815260040161047490610ae0565b60405180910390fd5b7f94064f919a02d0565c6790e0615fb4ba6cf1be1dd679f0161be914613a1b9bb5826040516104ac9190610746565b60405180910390a16040518060400160405280600881526020017f72656a6563746564000000000000000000000000000000000000000000000000815250600390816104f8919061099c565b505050565b600260009054906101000a900473ffffffffffffffffffffffffffffffffffffffff1681565b60008054906101000a900473ffffffffffffffffffffffffffffffffffffffff1681565b600081519050919050565b600082825260208201905092915050565b60005b83811015610581578082015181840152602081019050610566565b60008484015250505050565b6000601f19601f8301169050919050565b60006105a982610547565b6105b38185610552565b93506105c3818560208601610563565b6105cc8161058d565b840191505092915050565b600060208201905081810360008301526105f1818461059e565b905092915050565b600073ffffffffffffffffffffffffffffffffffffffff82169050919050565b6000610624826105f9565b9050919050565b61063481610619565b82525050565b600060208201905061064f600083018461062b565b92915050565b600081905092915050565b50565b6000610670600083610655565b915061067b82610660565b600082019050919050565b600061069182610663565b9150819050919050565b7f4661696c656420746f2073656e6420457468657220746f2062656e656669636960008201527f6172790000000000000000000000000000000000000000000000000000000000602082015250565b60006106f7602383610552565b91506107028261069b565b604082019050919050565b60006020820190508181036000830152610726816106ea565b9050919050565b6000819050919050565b6107408161072d565b82525050565b600060208201905061075b6000830184610737565b92915050565b7f4e487b7100000000000000000000000000000000000000000000000000000000600052604160045260246000fd5b7f4e487b7100000000000000000000000000000000000000000000000000000000600052602260045260246000fd5b600060028204905060018216806107d757607f821691505b6020821081036107ea576107e9610790565b5b50919050565b60008190508160005260206000209050919050565b60006020601f8301049050919050565b600082821b905092915050565b6000600883026108527fffffffffffffffffffffffffffffffffffffffffffffffffffffffffffffffff82610815565b61085c8683610815565b95508019841693508086168417925050509392505050565b6000819050919050565b600061089961089461088f8461072d565b610874565b61072d565b9050919050565b6000819050919050565b6108b38361087e565b6108c76108bf826108a0565b848454610822565b825550505050565b600090565b6108dc6108cf565b6108e78184846108aa565b505050565b5b8181101561090b576109006000826108d4565b6001810190506108ed565b5050565b601f82111561095057610921816107f0565b61092a84610805565b81016020851015610939578190505b61094d61094585610805565b8301826108ec565b50505b505050565b600082821c905092915050565b600061097360001984600802610955565b1980831691505092915050565b600061098c8383610962565b9150826002028217905092915050565b6109a582610547565b67ffffffffffffffff8111156109be576109bd610761565b5b6109c882546107bf565b6109d382828561090f565b600060209050601f831160018114610a0657600084156109f4578287015190505b6109fe8582610980565b865550610a66565b601f198416610a14866107f0565b60005b82811015610a3c57848901518255600182019150602085019450602081019050610a17565b86831015610a595784890151610a55601f891682610962565b8355505b6001600288020188555050505b505050505050565b7f4661696c656420746f2073656e6420457468657220746f206465706f7369746f60008201527f7200000000000000000000000000000000000000000000000000000000000000602082015250565b6000610aca602183610552565b9150610ad582610a6e565b604082019050919050565b60006020820190508181036000830152610af981610abd565b905091905056fea2646970667358221220e6f0de6d9a2308948b8fe8f0240e5e59f1f08d3e482dad86e3e787dee715294864736f6c63430008110033",
  "linkReferences": {},
  "deployedLinkReferences": {}
}